:100000000C9434000C9451000C9451000C94510049
:100010000C9451000C9451000C9451000C946F01FD
:100020000C9451000C9451000C9451000C949701C5
:100030000C9451000C9451000C9451000C945100FC
:100040000C9451000C9451000C9451000C945100EC
:100050000C9451000C9451000C9451000C945100DC
:100060000C9451000C94510011241FBECFEFD8E026
:10007000DEBFCDBF11E0A0E0B1E0EEEFF5E002C0E1
:1000800005900D92A830B107D9F711E0A8E0B1E0D2
:1000900001C01D92AE33B107E1F70E941C020C941F
:1000A000FD020C940000882321F080E88093080171
:1000B0000895109208010895982F92959F70282F07
:1000C0002F7080910801882311F09068206895B9FD
:1000D00095B9892F806485B985B995B995B925B940
:1000E00025B9822F806485B985B925B925B915B898
:1000F0008AE68A95F1F70895482F42954F70942F1C
:100100009061382F3F70232F206180910801882350
:1001100021F0942F9069232F206995B995B9892FE3
:10012000806485B985B995B995B925B925B9822F66
:10013000806485B985B925B925B915B885E88A954A
:10014000F1F708950F931F9381E00E945C0000EA8D
:100150001FE0C8010197F1F782E00E945C00C8012E
:100160000197F1F71F910F91089580910801982F41
:10017000926095B995B9826485B985B995B995B9F3
:1001800015B885E88A95F1F788E20E945C0086E060
:100190000E945C008CE00E945C000E94A200089516
:1001A000813011F080EC01C080E861506F70862BC7
:1001B0000E945C000895CF93DF93EC0103C00E947E
:1001C0007C00219688818823D1F7DF91CF91089513
:1001D00083E884BD81E085BD10926E00109280009E
:1001E0008AE08093810010928200EFE6F0E0808147
:1001F0008260808388EE93E09093890080938800EA
:1002000082E08093B0008093B10082E38093B300DA
:10021000E0E7F0E08081826080837894089581E255
:1002200080937C0086E880937A0010927B0008958A
:10023000E0910501F0910601808380913D018F5F7F
:1002400080933D0180910A018F5F80930A01803283
:1002500049F48BE091E090930601809305011092A0
:100260000A0108953196F0930601E093050108957F
:1002700030913D01332391F1E0910301F0910401AC
:100280002081922F92959F7027FF906195B9892FB9
:10029000806485B995B9892F807F2F70822B85B9AD
:1002A000982F906495B985B915B880910201815055
:1002B00080930201882351F48BE091E09093040134
:1002C0008093030180E28093020105C03196F09390
:1002D0000401E0930301315030933D0108951F92D2
:1002E0000F920FB60F9211242F933F934F935F936A
:1002F0006F937F938F939F93AF93BF93EF93FF93EE
:100300005D9A1092B2000E9438015D98FF91EF91C2
:10031000BF91AF919F918F917F916F915F914F911D
:100320003F912F910F900FBE0F901F9018951F9225
:100330000F920FB60F9211242F933F934F935F9319
:100340006F937F938F939F93AF93BF93CF93DF93DD
:10035000EF93FF935C9A82E08093700086EC809329
:100360007A0080917A0086FDFCCF40917900CDE241
:10037000D1E0CE0160E071E00E94B80280910901F5
:100380008130D1F480E80E941801D0932C01C093F1
:100390002B010BC00E94180180912B0190912C0120
:1003A000019690932C0180932B01E0912B01F09109
:1003B0002C018081882371F720910101422F50E0A8
:1003C00020FD19C040917900269530E08091790098
:1003D00090E02F5F3F4F022E02C0959587950A94BB
:1003E000E2F72150304050E002C0559547952A95DC
:1003F000E2F7840F0CC08091790090E041505040AA
:100400005595479502C0959587954A95E2F787BD22
:100410005C98FF91EF91DF91CF91BF91AF919F9148
:100420008F917F916F915F914F913F912F910F909D
:100430000FBE0F901F901895DF92EF92FF920F93CF
:100440001F93CF93DF938FEF84B98CEF87B980EF41
:100450008AB981E280937C0086E880937A001092CA
:100460007B000E94B50081E061E00E94D0000E9404
:10047000E80090E0FF2432E0E32ECDE2D1E0DD247D
:10048000D39402C0F12E902F80913D01882319F062
:10049000E092700002C01092700009B1017019B1B1
:1004A0001270091779F140910101442359F1002399
:1004B00049F5415040930101109209018DE291E00C
:1004C00060E071E00E94B80280EC0E941801D093B5
:1004D0002C01C0932B010BC00E94180180912B01AD
:1004E00090912C01019690932C0180932B01E09127
:1004F0002B01F0912C018081882371F7E09270002C
:10050000D09209011F1509F4BDCF409101014C3073
:1005100008F0B8CF112309F0B5CF4F5F4093010128
:10052000109209018DE291E060E071E00E94B80252
:1005300080EC0E941801D0932C01C0932B010BC0BA
:100540000E94180180912B0190912C0101969093AB
:100550002C0180932B01E0912B01F0912C018081E3
:10056000882371F7E0927000D0920901FF248BCFAD
:10057000DC01FB0102C08D93319680818823D9F77D
:10058000443620F480E28C9320E00EC0842F64E691
:100590000E94F102282F205D2C9320538CE99FEFBD
:1005A000289F802D1124480FFD0131964A3038F4E0
:1005B000222311F480E201C080E380830EC0842FE7
:1005C0006AE00E94F102805D11968C93805326EFC1
:1005D0003FEF829F802D1124480F405D418312829E
:1005E0000895991B79E004C0991F961708F0961B8F
:0E05F000881F7A95C9F780950895F894FFCF7B
:0805FE000001200B010B0100BC
:00000001FF
