:100000000C9434000C9446000C9446000C9446006A
:100010000C9446000C9446000C9446000C94460048
:100020000C9446000C9446000C9446000C94460038
:100030000C9446000C9446000C9446000C94460028
:100040000C9446000C9446000C9446000C94460018
:100050000C9446000C9446000C9446000C94460008
:100060000C9446000C94460011241FBECFEFD8E03C
:10007000DEBFCDBF11E0A0E0B1E001C01D92A13014
:10008000B107E1F70E94DD000C945D010C940000C3
:10009000882321F080E880930001089510920001E8
:1000A0000895982F92959F70282F2F7080910001AE
:1000B000882311F09068206895B995B9892F8064DC
:1000C00085B985B995B995B925B925B9822F8064C7
:1000D00085B985B925B925B915B88AE68A95F1F7A4
:1000E0000895482F42954F70942F9061382F3F709C
:1000F000232F206180910001882321F0942F9069A3
:10010000232F206995B995B9892F806485B985B960
:1001100095B995B925B925B9822F806485B985B976
:1001200025B925B915B885E88A95F1F708950F9393
:100130001F9381E00E94510000EA1FE0C80101976F
:10014000F1F782E00E945100C8010197F1F71F9179
:100150000F91089580910001982F926095B995B9FB
:10016000826485B985B995B995B915B885E88A9538
:10017000F1F788E20E94510086E00E9451008CE075
:100180000E9451000E9497000895813011F080EC88
:1001900001C080E861506F70862B0E945100089565
:1001A000CF93DF93EC0103C00E94710021968881F8
:1001B0008823D1F7DF91CF9108958FEF84B98CEF29
:1001C00087B98EEF8AB981E280937C0086E88093BC
:1001D0007A0010927B0041E090E020E076EC709392
:1001E0007A005D9A80917A0086FDFCCF5D9869B1B6
:1001F000617059B15270691729F0442319F06623D0
:1002000009F44150521729F0463018F4552309F4E7
:100210004F5F2091790030E0842F90E0019702C079
:10022000359527958A95E2F725B9252F962FD7CFB3
:10023000DC01FB0102C08D93319680818823D9F7C0
:10024000443620F480E28C9320E00EC0842F64E6D4
:100250000E945101282F205D2C9320538CE99FEFA1
:10026000289F802D1124480FFD0131964A3038F423
:10027000222311F480E201C080E380830EC0842F2A
:100280006AE00E945101805D11968C93805326EFA5
:100290003FEF829F802D1124480F405D41831282E1
:1002A0000895991B79E004C0991F961708F0961BD2
:0E02B000881F7A95C9F780950895F894FFCFBE
:00000001FF
