:100000000C9434000C9451000C9451000C94510049
:100010000C9451000C9451000C9451000C9451001C
:100020000C9451000C9451000C9451000C9451000C
:100030000C9451000C9451000C9451000C945100FC
:100040000C9451000C9451000C9451000C945100EC
:100050000C9451000C9451000C9451000C945100DC
:100060000C9451000C94510011241FBECFEFD8E026
:10007000DEBFCDBF11E0A0E0B1E0E2E4F3E002C0FA
:1000800005900D92A231B107D9F711E0A2E1B1E0DC
:1000900001C01D92A331B107E1F70E94E8000C9462
:1000A0009F010C940000882321F080E880931201C6
:1000B0000895109212010895982F92959F70282FFD
:1000C0002F7080911201882311F09068206895B9F3
:1000D00095B9892F806485B985B995B995B925B940
:1000E00025B9822F806485B985B925B925B915B898
:1000F0008AE68A95F1F70895482F42954F70942F1C
:100100009061382F3F70232F206180911201882346
:1001100021F0942F9069232F206995B995B9892FE3
:10012000806485B985B995B995B925B925B9822F66
:10013000806485B985B925B925B915B885E88A954A
:10014000F1F708950F931F9381E00E945C0000EA8D
:100150001FE0C8010197F1F782E00E945C00C8012E
:100160000197F1F71F910F91089580911201982F37
:10017000926095B995B9826485B985B995B995B9F3
:1001800015B885E88A95F1F788E20E945C0086E060
:100190000E945C008CE00E945C000E94A200089516
:1001A000813011F080EC01C080E861506F70862BC7
:1001B0000E945C000895CF93DF93EC0103C00E947E
:1001C0007C00219688818823D1F7DF91CF91089513
:1001D000AF92BF92CF92DF92EF92FF920F931F9355
:1001E000DF93CF93CDB7DEB760970FB6F894DEBF3D
:1001F0000FBECDBFDE011196E1E0F1E088E0019095
:100200000D928150E1F7FE01399688E0DF011D92E1
:100210008A95E9F78FEF84B98CEF8AB90E94B5000F
:1002200081E061E00E94D000CE0101960E94DB00D7
:1002300000E010E080E020E040E2A42E30E1B32EA8
:1002400098EEC92E93E0D92EABB8E9B0B1E0EB221D
:10025000F9B092E0F922E81649F017FD07C0EE2048
:1002600029F40150104081E090E002C080E090E06D
:10027000F21641F00C3011052CF4FF2019F40F5F39
:100280001F4F02C0019779F4BBB8C80160E071E06C
:10029000402F0E945A0181E067E00E94D000C8010F
:1002A0000E94DB001BB81BB8C6010197F1F72F2D88
:1002B0008E2DCACFDC01FB0102C08D933196808167
:1002C0008823D9F7443620F480E28C9320E00EC0D6
:1002D000842F64E60E949301282F205D2C932053E5
:1002E0008CE99FEF289F802D1124480FFD01319646
:1002F0004A3038F4222311F480E201C080E3808385
:100300000EC0842F6AE00E949301805D11968C9349
:10031000805326EF3FEF829F802D1124480F405DD0
:10032000418312820895991B79E004C0991F9617A2
:1003300008F0961B881F7A95C9F780950895F89460
:02034000FFCFED
:1003420000417474656E3D20000000000000000052
:020352000000A9
:00000001FF
