:100000000C9434000C9451000C9451000C94510049
:100010000C9451000C9451000C9451000C94C201AA
:100020000C9451000C9451000C9451000C949702C4
:100030000C9451000C9451000C9451000C945100FC
:100040000C9451000C9451000C9422020C94F20177
:100050000C9451000C9451000C9451000C945100DC
:100060000C9451000C94510011241FBECFEFD8E026
:10007000DEBFCDBF11E0A0E0B1E0E4E5F7E002C0F3
:1000800005900D92A631B107D9F711E0A6E1B1E0D4
:1000900001C01D92A138B107E1F70E9431030C9411
:1000A000A8030C940000882321F080E880931601B7
:1000B0000895109216010895982F92959F70282FF9
:1000C0002F7080911601882311F09068206895B9EF
:1000D00095B9892F806485B985B995B995B925B940
:1000E00025B9822F806485B985B925B925B915B898
:1000F0008AE68A95F1F70895482F42954F70942F1C
:100100009061382F3F70232F206180911601882342
:1001100021F0942F9069232F206995B995B9892FE3
:10012000806485B985B995B995B925B925B9822F66
:10013000806485B985B925B925B915B885E88A954A
:10014000F1F708950F931F9381E00E945C0000EA8D
:100150001FE0C8010197F1F782E00E945C00C8012E
:100160000197F1F71F910F91089580911601982F33
:10017000926095B995B9826485B985B995B995B9F3
:1001800015B885E88A95F1F788E20E945C0086E060
:100190000E945C008CE00E945C000E94A200089516
:1001A000813011F080EC01C080E861506F70862BC7
:1001B0000E945C000895CF93DF93EC0103C00E947E
:1001C0007C00219688818823D1F7DF91CF91089513
:1001D00083E884BD81E085BD10926E00109280009E
:1001E0008AE08093810010928200EFE6F0E0808147
:1001F0008260808388EE93E09093890080938800EA
:1002000082E08093B0008093B10082E38093B300DA
:10021000E0E7F0E08081826080837894089581E255
:1002200080937C0086E880937A0010927B0008958A
:100230001092C50083E38093C4001092C00088E947
:100240008093C10086E08093C2000895E09114017C
:10025000F0911501808380917E018F5F80937E01F4
:1002600080911A018F5F80931A01803249F48BE4E8
:1002700091E0909315018093140110921A01089552
:100280003196F0931501E0931401089530917E01A9
:10029000332391F1E0911201F09113012081922F0B
:1002A00092959F7027FF906195B9892F806485B9D9
:1002B00095B9892F807F2F70822B85B9982F9064F4
:1002C00095B985B915B880911101815080931101BC
:1002D000882351F48BE491E09093130180931201F1
:1002E00080E28093110105C03196F0931301E093F1
:1002F0001201315030937E010895E0910F01F09189
:100300001001808380917D018F5F80937D018091BA
:1003100019018F5F80931901803249F48BE291E0DB
:100320009093100180930F01109219010895319656
:10033000F0931001E0930F01089520917D01222395
:1003400001F1E0910D01F0910E0180818093C600D2
:1003500080910C01815080930C01882351F48BE231
:1003600091E090930E0180930D0180E280930C0147
:1003700005C03196F0930E01E0930D0121502093BA
:100380007D0108951F920F920FB60F9211242F93A3
:100390003F934F935F936F937F938F939F93AF930D
:1003A000BF93EF93FF931092B20080917E01882358
:1003B00031F4809170008D7F8093700002C00E94A4
:1003C0004601FF91EF91BF91AF919F918F917F91E6
:1003D0006F915F914F913F912F910F900FBE0F90B2
:1003E0001F9018951F920F920FB60F9211242F9302
:1003F0003F934F935F936F937F938F939F93AF93AD
:10040000BF93EF93FF935D9A80917D01882331F430
:100410008091C1008F7D8093C10002C00E949D0128
:100420005D98FF91EF91BF91AF919F918F917F91D7
:100430006F915F914F913F912F910F900FBE0F9051
:100440001F9018951F920F920FB60F9211240F93C1
:100450001F932F933F934F935F936F937F938F934C
:100460009F93AF93BF93EF93FF938091C6008093C8
:10047000170190E08F7D90708535910531F4809162
:100480000B018C3060F48F5F08C08434910539F41F
:1004900080910B0181508C3010F480930B010DE69C
:1004A00011E0C80160E071E040910B010E9463031C
:1004B00080EC0E9426018DE00E947D0110936C016A
:1004C00000936B0112C00E942601E0916B01F09134
:1004D0006C0180810E947D0180916B0190916C0183
:1004E000019690936C0180936B01E0916B01F09108
:1004F0006C018081882339F782E0809370008091BD
:10050000C10080628093C100FF91EF91BF91AF91D4
:100510009F918F917F916F915F914F913F912F911B
:100520001F910F910F900FBE0F901F9018951F9263
:100530000F920FB60F9211240F931F932F933F9397
:100540004F935F936F937F938F939F93AF93BF93DB
:10055000EF93FF9382E08093700086EC80937A00A3
:1005600080917A0086FDFCCF809118018F5F809387
:10057000180120910B01422F50E020FD19C040913D
:100580007900269530E08091790090E02F5F3F4F11
:10059000022E02C0959587950A94E2F721503040CB
:1005A00050E002C0559547952A95E2F7840F0CC09C
:1005B0008091790090E0415050405595479502C098
:1005C000959587954A95E2F787BD47B50DE611E009
:1005D000C80166E071E00E94630380E80E94260182
:1005E00010936C0100936B010091180114C00A3044
:1005F00011F40E947D01E0916B01F0916C0180810A
:100600000E94260180916B0190916C01019690935C
:100610006C0180936B01E0916B01F0916C01808122
:10062000882329F70A3029F480E20E947D01109284
:1006300018018091C10080628093C100FF91EF9109
:10064000BF91AF919F918F917F916F915F914F91EA
:100650003F912F911F910F910F900FBE0F901F9000
:1006600018958FEF84B98CEF87B980EF8AB981E252
:1006700080937C0086E880937A0010927B000E9431
:10068000B5001092C50083E38093C4001092C000AF
:1006900088E98093C10086E08093C2000E94E80050
:1006A00028EC30E05C9A84EF91E0F9013197F1F7A2
:1006B0000197D9F75C9884EF91E0F9013197F1F750
:1006C0000197D9F7EFCFDC01FB0102C08D93319682
:1006D00080818823D9F7443620F480E28C9320E08F
:1006E0000EC0842F64E60E949C03282F205D2C936B
:1006F00020538CE99FEF289F802D1124480FFD0186
:1007000031964A3038F4222311F480E201C080E3AC
:1007100080830EC0842F6AE00E949C03805D119646
:100720008C93805326EF3FEF829F802D1124480F3A
:10073000405D418312820895991B79E004C0991F9E
:10074000961708F0961B881F7A95C9F7809508952B
:04075000F894FFCF4B
:10075400417474656E00414443200001202B012B39
:0607640001204B014B01D6
:00000001FF
