:100000000C9434000C943E000C943E000C943E0082
:100010000C943E000C943E000C943E000C943E0068
:100020000C943E000C943E000C943E000C943E0058
:100030000C943E000C943E000C943E000C943E0048
:100040000C943E000C943E000C943E000C943E0038
:100050000C943E000C943E000C943E000C943E0028
:100060000C943E000C943E0011241FBECFEFD8E04C
:10007000DEBFCDBF0E9440000C949B000C9400009A
:100080000F931F938FEF84B98CEF8AB981E085B904
:10009000E0E0F0E020E030E040E050E000E811E097
:1000A00002C0E1E0F0E089B190E0DC01A170B07045
:1000B00080FD06C0309721F42F5F3F4F4F4F5F4FB9
:1000C00060E070E000006F5F7F4F83E0683E78077C
:1000D000C9F7AE17BF0729F42B3F3105410551057C
:1000E00014F3AB2BF1F649990BC085B1803829F494
:1000F00085B985B985B915B90EC085B1880F0AC013
:1001000085B1813029F485B985B985B905B903C0B0
:1001100085B1869585B9E0E0F0E020E030E040E090
:1001200050E0C1CF80E090E00000019623E0883EDF
:0A0130009207D1F70895F894FFCF6D
:00000001FF
