:100000000C9434000C943E000C943E000C943E0082
:100010000C943E000C943E000C943E000C943E0068
:100020000C943E000C943E000C943E000C943E0058
:100030000C943E000C943E000C943E000C943E0048
:100040000C943E000C943E000C943E000C943E0038
:100050000C943E000C943E000C943E000C943E0028
:100060000C943E000C943E0011241FBECFEFD8E04C
:10007000DEBFCDBF0E9440000C9463000C940000D2
:100080008FEF84B98CEF8AB981E085B920E891E0DF
:100090004899FECF49990BC085B1803829F485B9BC
:1000A00085B985B995B9F4CF85B1880F0AC085B1F6
:1000B000813029F485B985B985B925B9E9CF85B1EC
:0A00C000869585B9E5CFF894FFCFCF
:00000001FF
