:100000000C9434000C9451000C9451000C94510049
:100010000C9451000C9451000C9451000C9451001C
:100020000C9451000C9451000C9451000C94090153
:100030000C9451000C9451000C9451000C945100FC
:100040000C9451000C9451000C9451000C945100EC
:100050000C9451000C9451000C9451000C945100DC
:100060000C9451000C94510011241FBECFEFD8E026
:10007000DEBFCDBF11E0A0E0B1E0EEE0F4E002C0F1
:1000800005900D92A230B107D9F711E0A2E0B1E0DE
:1000900001C01D92A831B107E1F70E94A9010C949B
:1000A00005020C940000882321F080E8809302016F
:1000B0000895109202010895982F92959F70282F0D
:1000C0002F7080910201882311F09068206895B903
:1000D00095B9892F806485B985B995B995B925B940
:1000E00025B9822F806485B985B925B925B915B898
:1000F0008AE68A95F1F70895482F42954F70942F1C
:100100009061382F3F70232F206180910201882356
:1001100021F0942F9069232F206995B995B9892FE3
:10012000806485B985B995B995B925B925B9822F66
:10013000806485B985B925B925B915B885E88A954A
:10014000F1F708950F931F9381E00E945C0000EA8D
:100150001FE0C8010197F1F782E00E945C00C8012E
:100160000197F1F71F910F91089580910201982F47
:10017000926095B995B9826485B985B995B995B9F3
:1001800015B885E88A95F1F788E20E945C0086E060
:100190000E945C008CE00E945C000E94A200089516
:1001A000813011F080EC01C080E861506F70862BC7
:1001B0000E945C000895CF93DF93EC0103C00E947E
:1001C0007C00219688818823D1F7DF91CF91089513
:1001D00083E884BD81E085BD109280008AE0809331
:1001E00081001092820088EE93E0909389008093C2
:1001F0008800EFE6F0E08081826080837894089543
:1002000081E280937C0086E880937A0010927B00E4
:1002100008951F920F920FB60F9211242F933F93C0
:100220004F935F936F937F938F939F93AF93BF93FE
:10023000EF93FF935C9A86EC80937A0080917A002A
:1002400086FDFCCF4091790088E091E060E071E0AC
:100250000E94C0015D9A82E061E00E94D00088E0C7
:1002600091E00E94DB005D9879B171707093060196
:1002700069B162706093050180910401781749F0BB
:1002800080910701882329F0772319F48150809306
:10029000070180910301681749F0809107018C30B4
:1002A00028F4662319F48F5F80930701E09107011A
:1002B0002E2F30E0E0FD1BC0809179002E2F269577
:1002C00030E04091790050E02F5F3F4F022E02C096
:1002D000559547950A94E2F72150304090E002C0CE
:1002E000959587952A95E2F7480F47BD0DC08091F7
:1002F000790090E0215030403595279502C09595C2
:1003000087952A95E2F787BD7093040160930301F6
:1003100088E091E060E071E04E2F0E94C00181E032
:1003200061E00E94D00088E091E00E94DB005C98D0
:10033000FF91EF91BF91AF919F918F917F916F91BD
:100340005F914F913F912F910F900FBE0F901F9093
:1003500018958FEF84B98CEF87B980EF8AB981E265
:1003600080937C0086E880937A0010927B000E9444
:10037000B50081E061E00E94D0000E94E800FFCF5C
:10038000DC01FB0102C08D93319680818823D9F76F
:10039000443620F480E28C9320E00EC0842F64E683
:1003A0000E94F901282F205D2C9320538CE99FEFA8
:1003B000289F802D1124480FFD0131964A3038F4D2
:1003C000222311F480E201C080E380830EC0842FD9
:1003D0006AE00E94F901805D11968C93805326EFAC
:1003E0003FEF829F802D1124480F405D4183128290
:1003F0000895991B79E004C0991F961708F0961B81
:0E040000881F7A95C9F780950895F894FFCF6C
:02040E000000EC
:00000001FF
